{
  "contractName": "Transactions",
  "abi": [
    {
      "inputs": [],
      "name": "deposit",
      "outputs": [],
      "stateMutability": "payable",
      "type": "function",
      "payable": true
    },
    {
      "inputs": [
        {
          "internalType": "address payable",
          "name": "_to",
          "type": "address"
        },
        {
          "internalType": "uint256",
          "name": "_amount",
          "type": "uint256"
        }
      ],
      "name": "withdraw",
      "outputs": [],
      "stateMutability": "nonpayable",
      "type": "function"
    },
    {
      "inputs": [],
      "name": "getBalance",
      "outputs": [
        {
          "internalType": "uint256",
          "name": "",
          "type": "uint256"
        }
      ],
      "stateMutability": "view",
      "type": "function",
      "constant": true
    },
    {
      "inputs": [],
      "name": "getAddress",
      "outputs": [
        {
          "internalType": "address",
          "name": "",
          "type": "address"
        }
      ],
      "stateMutability": "view",
      "type": "function",
      "constant": true
    }
  ],
  "bytecode": "0x608060405234801561001057600080fd5b5061029f806100206000396000f3fe60806040526004361061003f5760003560e01c806312065fe01461004457806338cc48311461006f578063d0e30db01461009a578063f3fef3a3146100a4575b600080fd5b34801561005057600080fd5b506100596100cd565b60405161006691906101cd565b60405180910390f35b34801561007b57600080fd5b506100846100d5565b60405161009191906101b2565b60405180910390f35b6100a26100dd565b005b3480156100b057600080fd5b506100cb60048036038101906100c69190610154565b6100df565b005b600047905090565b600030905090565b565b8173ffffffffffffffffffffffffffffffffffffffff166108fc829081150290604051600060405180830381858888f19350505050158015610125573d6000803e3d6000fd5b505050565b6000813590506101398161023b565b92915050565b60008135905061014e81610252565b92915050565b6000806040838503121561016b5761016a610236565b5b60006101798582860161012a565b925050602061018a8582860161013f565b9150509250929050565b61019d816101e8565b82525050565b6101ac8161022c565b82525050565b60006020820190506101c76000830184610194565b92915050565b60006020820190506101e260008301846101a3565b92915050565b60006101f38261020c565b9050919050565b60006102058261020c565b9050919050565b600073ffffffffffffffffffffffffffffffffffffffff82169050919050565b6000819050919050565b600080fd5b610244816101fa565b811461024f57600080fd5b50565b61025b8161022c565b811461026657600080fd5b5056fea26469706673582212205149fc4dadcc1868631261498e81f6abf38fa731fb22ada546e111697e7589ea64736f6c63430008070033",
  "immutableReferences": {},
  "source": "//SPDX-License-Identifier: GPL-3.0\r\n\r\npragma solidity >=0.8.7;\r\n\r\ncontract Transactions {\r\n\r\n    //Address --> Contract -- deposit\r\n    function deposit() external payable {\r\n    }\r\n\r\n    //Contract --> Address  -- withdrawal\r\n    function withdraw(address payable _to, uint _amount) external {\r\n        _to.transfer(_amount);\r\n    }\r\n\r\n    function getBalance() external view returns(uint) {\r\n        return address(this).balance;\r\n    }\r\n\r\n    function getAddress() external view returns(address) {\r\n        return address(this);\r\n    }\r\n\r\n}",
  "sourcePath": "C:\\Users\\mahas\\Desktop\\KSA_Banks\\contracts\\Transactions.sol",
  "compiler": {
    "name": "solc",
    "version": "0.8.7+commit.e28d00a7.Emscripten.clang"
  },
  "schemaVersion": "3.4.14",
  "updatedAt": "2023-07-21T17:42:01.220Z",
  "networkType": "ethereum",
  "devdoc": {
    "kind": "dev",
    "methods": {},
    "version": 1
  },
  "userdoc": {
    "kind": "user",
    "methods": {},
    "version": 1
  }
}